S38500420000A55AA55A010000000000000000084200000000000008420000000000000842000000000000000000000000000000000000000000000000000000000000000000000000000000000000000000000000000000000000000000000000000000000000000000000000000000000000000000000000000000000000000000000000005B
S385004200800000000000000000000000000000000000000000000000000000000000000000000000000000000000000000000000000000000000000000000000000000000000000000000000000000000000000000000000000000000000000000000000000000000000000000000000000000000000000000000000000000000000000000B8
S38500420100000000000000000000000000000000000000000000000000000000000000000000000000000000000000000000000000000000000000000000000000000000000000000000000000000000000000000000000000000000000000000000000000000000000000000000000000000000000000000000000000000000000000000037
S385004201800000000000000000000000000000000000000000000000000000000000000000000000000000000000000000000000000000000000000000000000000000000000000000000000000000000000000000000000000000000000000000000000000000000000000000000000000000000000000000000000000000000000000000B7
S38500420200000000000000000000000000000000000000000000000000000000000000000000000000000000000000000000000000000000000000000000000000000000000000000000000000000000000000000000000000000000000000000000000000000000000000000000000000000000000000000000000000000000000000000036
S385004202800000000000000000000000000000000000000000000000000000000000000000000000000000000000000000000000000000000000000000000000000000000000000000000000000000000000000000000000000000000000000000000000000000000000000000000000000000000000000000000000000000000000000000B6
S38500420300000000000000000000000000000000000000000000000000000000000000000000000000000000000000000000000000000000000000000000000000000000000000000000000000000000000000000000000000000000000000000000000000000000000000000000000000000000000000000000000000000000000000000035
S385004203800000000000000000000000000000000000000000000000000000000000000000000000000000000000000000000000000000000000000000000000000000000000000000000000000000000000000000000000000000000000000000000000000000000000000000000000000000000000000000000000000000000000000000B5
S38500420400000000000000000000000000000000000000000000000000000000000000000000000000000000000000000000000000000000000000000000000000000000000000000000000000000000000000000000000000000000000000000000000000000000000000000000000000000000000000000000000000000000000000000034
S385004204800000000000000000000000000000000000000000000000000000000000000000000000000000000000000000000000000000000000000000000000000000000000000000000000000000000000000000000000000000000000000000000000000000000000000000000000000000000000000000000000000000000000000000B4
S38500420500000000000000000000000000000000000000000000000000000000000000000000000000000000000000000000000000000000000000000000000000000000000000000000000000000000000000000000000000000000000000000000000000000000000000000000000000000000000000000000000000000000000000000033
S385004205800000000000000000000000000000000000000000000000000000000000000000000000000000000000000000000000000000000000000000000000000000000000000000000000000000000000000000000000000000000000000000000000000000000000000000000000000000000000000000000000000000000000000000B3
S38500420600000000000000000000000000000000000000000000000000000000000000000000000000000000000000000000000000000000000000000000000000000000000000000000000000000000000000000000000000000000000000000000000000000000000000000000000000000000000000000000000000000000000000000032
S385004206800000000000000000000000000000000000000000000000000000000000000000000000000000000000000000000000000000000000000000000000000000000000000000000000000000000000000000000000000000000000000000000000000000000000000000000000000000000000000000000000000000000000000000B2
S38500420700000000000000000000000000000000000000000000000000000000000000000000000000000000000000000000000000000000000000000000000000000000000000000000000000000000000000000000000000000000000000000000000000000000000000000000000000000000000000000000000000000000000000000031
S385004207800000000000000000000000000000000000000000000000000000000000000000000000000000000000000000000000000000000000000000000000000000000000000000000000000000000000000000000000000000000000000000000000000000000000000000000000000000000000000000000000000000000000000000B1
S3850042080000000120210C4200011D4200031D4200051D4200071D4200091D4200000000000000000000000000000000000B1D42000D1D4200000000000F1D4200111D4200131D4200131D4200131D4200131D4200131D4200131D4200131D4200131D4200131D4200131D4200131D4200131D4200131D4200131D4200131D4200131D4200D8
S38500420880131D4200131D4200131D4200131D4200131D4200131D4200131D4200131D4200131D4200131D4200131D4200131D4200131D4200131D4200131D4200131D4200131D4200131D4200131D4200131D4200131D4200131D4200131D4200131D4200131D4200131D4200131D4200131D4200131D4200131D4200131D4200131D420070
S38500420900131D4200131D4200131D4200131D4200131D4200131D4200131D4200131D4200131D4200131D4200131D4200131D4200131D4200131D4200131D4200131D4200131D4200131D4200131D4200131D4200131D4200131D4200131D4200131D4200131D4200131D4200131D4200131D4200131D4200131D4200131D4200131D4200EF
S38500420980131D4200131D4200131D4200131D4200131D4200131D4200131D4200131D4200131D4200131D4200131D4200131D4200131D4200131D4200131D4200131D4200131D4200131D4200131D4200131D4200131D4200131D4200131D4200131D4200131D4200131D4200131D4200131D4200131D4200131D4200131D4200131D42006F
S38500420A00131D4200131D4200131D4200131D4200131D4200131D4200131D4200131D4200131D4200131D4200131D4200131D4200131D4200131D4200131D4200131D4200131D4200131D4200131D4200131D4200131D4200131D4200131D4200131D4200131D4200131D4200131D4200131D4200131D4200131D4200131D4200131D4200EE
S38500420A80131D4200131D4200131D4200131D4200131D4200131D4200131D4200131D4200131D4200131D4200131D4200131D4200131D4200131D4200131D4200131D4200131D4200131D4200131D4200131D4200131D4200131D4200131D4200131D4200131D4200131D4200131D4200131D4200131D4200131D4200131D4200131D42006E
S38500420B00131D4200131D4200131D4200131D4200131D4200131D4200131D4200131D4200131D4200131D4200131D4200131D4200131D4200131D4200131D4200131D4200131D4200131D4200131D4200131D4200131D4200131D4200131D4200131D4200131D4200131D4200131D4200131D4200131D4200131D4200131D4200131D4200ED
S38500420B80131D4200131D4200131D4200131D4200131D4200131D4200131D4200131D4200131D4200131D4200131D4200131D4200131D4200131D4200131D4200131D4200131D4200131D4200131D4200131D4200131D4200131D4200131D4200131D4200131D4200131D4200131D4200131D4200131D4200131D4200131D4200131D42006D
S38500420C00131D4200131D420000BF00BF00BF00BFFFF7FABF00000000000000000000000072B64FF000004FF000014FF000024FF000034FF000044FF000054FF000064FF000074FF0640001380028FCDC504801684FF0807201EA020100291CD14D4801684FF0807241EA020101604B4801684FF0010241EA02010160484845F6F021016087
S38500420C804AF20F510160424801684FF0807201EA02010029F7D04248424901604249086820F0040040F0010008604049086820F0040040F0010008603D4880F308883D4801684FF00000814200D02DE03A484CF2205101604DF6281101603848384901600AE038484CF2205101604DF628110160354833490160FFE73448002814D0344828
S38500420D0001684FF0010201EA0201002902D03149314A01E03149304A521A013A04DD0020002309C1083AFCDA2D48002809D02D492D4A521A013A04DD0020002309C1083AFCDA2A48002809D029492A4A521A013A04DD0020002309C1083AFCDA264800684FF05A318842F9D0124801684FF00000814202D001F03EF801E000F0F5FF01F063
S38500420D8069F862B601F064F800F038F800BFFEE710C32D4030C32D4004C32D4000C02D4008ED00E00000002094EF00E090EF00E000000120040026401000274000002740400000FF10C0464000C046400100000000C028400000402000804120000040200100000000000020000001200100000000000000008000006001402008B50748CB
S38500420E0002F0F6FB0649052007F0C6F9002000F013FF00F057FC034B186808BDD489420020864200540140201FB56523012201A900208DF8043000F018FF013818BF012005B05DF804FB034B002003491A7800F014BF00BFB002402000004020024B186800BA5861704700BF00004020500038B51423B0FBF3F103FB11000A23B2FBF3F37E
S38500420E8008B10133DBB20F4C617E2376013B994216D10932122A13D9C2B20B4D01EB8101A5F1140005EB810100F0FAFE1422A5F11401002000F0D9FE637E0133637638BD1422EAE7000040202E00402082B0B0F5406F10B502AC84E80C007BD030D8B0F5C06F6BD016D8B0F5407F61D009D8B0F5807F52D0B0F5007F57D0BDE8104002B02F
S38500420F007047B0F5806F56D0B0F5A06FF5D10A463C4944E0B0F5106F56D008D8B0F5E06F4FD0B0F5006FE8D10A46374937E0B0F5206F4CD0B0F5306FDFD10A4633492EE0B0F5905F13D015D8B0F5706F0FD008D8B0F5506F41D0B0F5606FCED10A462C491DE0B0F5805F3ED0B0F5885FC5D10A46284914E0B0F5A85F32D008D8B0F5985FB2
S38500420F80F5D0B0F5A05FB8D10A46234907E0B0F5B05FB2D10A46214901E00A4620490020BDE8104002B000F060BE0A461D49F6E70A461D49F3E70A461C49F0E70A461C49EDE70A461B49EAE70A461B49E7E70A461A49E4E70A461A49E1E70A461949DEE70A461949DBE7194C0A46002004F12E01FFF73CFF237E627E9A4204BF002363764B
S385004210007BE700BF4000402036004020460040203E0040204C0040204A00402056004020300040202E00402048004020420040203200402034004020380040203A004020440040203C004020540040200000402082B00190019B5A1E0192002BFAD102B070472B4A1368B3F5406F17D028D8B3F5C06F13D015D8B3F5407F0FD009D8B3F500
S38500421080807F0BD0B3F5007F08D0062B3DD0FFF7DABE23F48073B3F5806FF8D1022353607047B3F5106FF9D005D8B3F5E06FF5D0B3F5006FF1E723F48073B3F5206FECE7B3F5905FEAD00ED8B3F5706FE6D005D8B3F5506FE2D0B3F5606FDEE723F48073B3F5805FD9E7B3F5A85FD7D005D8B3F5985FD3D0B3F5A05FCFE7B3F5B05FCDD061
S38500421100B3F57F4FC3D10423C9E70323C7E700BF70004020B0F5206FF0B58BB000F0B38176D8B0F5A06F00F058812CD8B0F5407F00F0388109D8B0F5807F00F0FB80B0F5007F00F014810BB0F0BDB0F5806FFAD1BD4D0122BD4B6E4605F1080428351A7255F8282C55F8243C2068083454F8041C3746AC4203C73E46F6D12068012138605B
S385004211804FF48060F0E0B0F5006F00F0618121D8B0F5C06F00F03C81B0F5E06FD3D1AA4D0122AA4B6E4605F1080428351A7255F8282C55F8243C2068083454F8041C3746AC4203C73E46F6D12068012138604FF4E060C9E0B0F5106FB5D19B4D01229B4B6E4605F1080428351A7255F8282C55F8243C2068083454F8041C3746AC4203C7B5
S385004212003E46F6D12068012138604FF41060ABE0B0F5706F00F0888145D8B0F5506F00F0688121D8B0F5306F00F04881B0F5406F89D1854D0122854B6E4605F1080428351A7255F8282C55F8243C2068083454F8041C3746AC4203C73E46F6D12068012138604FF440607FE0B0F5606F7FF46BAF754D0122754B6E4605F1080428351A72B5
S3850042128055F8282C55F8243C2068083454F8041C3746AC4203C73E46F6D12068012138604FF4606060E0B0F5A85F00F0588122D8B0F5805F00F06E81B0F5A05F7FF443AF614D0122614B6E4605F1080428351A7255F8282C55F8243C2068083454F8041C3746AC4203C73E46F6D12068012138604FF4A05038E0B0F5B05F7FF424AF524D08
S385004213000122524B6E4605F1080428351A7255F8282C55F8243C2068083454F8041C3746AC4203C73E46F6D12068012138604FF4B05019E0444D0122444B6E4605F1080428351A7255F8282C55F8243C2068083454F8041C3746AC4203C73E46F6D12068012138604FF48070FFF7B0FDEBE6364D0122364B6E4605F1080428351A7255F86E
S38500421380282C55F8243C2068083454F8041C3746AC4203C73E46F6D12068012138604FF40070E1E7284D0122284B6E4605F1080428351A7255F8282C55F8243C2068083454F8041C3746AC4203C73E46F6D12068012138604FF44070C6E71B4D01221B4B6E4605F1080428351A7255F8282C55F8243C2068083454F8041C3746AC4203C76A
S385004214003E46F6D12068012138604FF4A060ABE70D4D01220D4B6E4605F1080428351A7255F8282C55F8243C2068083454F8041C3746AC4203C73E46F6D12068012138604FF4C06090E700BF2E004020700040205E4D01225E4B6E4605F1080428351A7255F8282C55F8243C2068083454F8041C3746AC4203C73E46F6D1206801213860C1
S385004214804FF4006070E7514D0122514B6E4605F1080428351A7255F8282C55F8243C2068083454F8041C3746AC4203C73E46F6D12068012138604FF4206055E7434D0122434B6E4605F1080428351A7255F8282C55F8243C2068083454F8041C3746AC4203C73E46F6D12068012138604FF430603AE7364D0122364B6E4605F10804283521
S385004215001A7255F8282C55F8243C2068083454F8041C3746AC4203C73E46F6D12068012138604FF450601FE7284D0122284B6E4605F1080428351A7255F8282C55F8243C2068083454F8041C3746AC4203C73E46F6D12068012138604FF4706004E71B4D01221B4B6E4605F1080428351A7255F8282C55F8243C2068083454F8041C3746EB
S38500421580AC4203C73E46F6D12068012138604FF4A850E9E60D4D16220D4B6E4605F1080428351A7255F8282C55F8243C2068083454F8041C3746AC4203C73E46F6D12068162138604FF48050CEE600BF2E00402070004020204B4AF6FF221A804BF6FF325A804CF6FF429A804DF6FF52DA804EF6FF621A814FF6AA725A814FF6BB729A814C
S385004216004FF6CC72DA814FF6DD721A824FF6EE725A824AF6AA229A824BF6BB32DA824CF6CC421A834DF6DD525A834EF6EE629A834FF6FF72DA834AF6AB321A844AF6AD525A844AF6AC429A844AF6AF72DA844BF6BF721A85704700BF2E00402010B5164C6368042B0ED8DFE803F0030E191F2300124CFFF7AFFF2378012B03D1FFF7E3FB4B
S385004216800023237010BDFFF7E9FB082120600C4806F06DFCBDE81040FFF7E3BC2068FFF739FD00236360EDE7BDE8104000F088B800F028F8F5E700BF70004020500140201217294008B54FF400510B4806F04FFC4FF40071094806F04AFC084CFFF7B3FB074B00225A6000BF00BF0821204606F05DFCFFF7B3FFF6E70E17294012172940C1
S385004217007000402004490123002004220B7048708B70C87000F0A9BA7C0040200A4B102110B50A4C1868221D00F0DCF863681BBA6361A3681BBAA361237B2377D4F80D301BBA236210BD00BFB40240207C0040200D4B012210B403F129011A7703F114001A1D52F8044B824241F8044BF9D1102206485DF8044B83F82420012283F83120D2
S38500421780034B196800F0BFB87C004020A0004020B402402010B504468D2003F0EBFA002003F0E0FC72B680F30888E368034A5B6843F00103BDE81040D36318477C00402008B5FFF7ABFFFFF7C3FF034B5868BDE80840FFF7DFBF00BFB402402008B5024800F01AFE002008BDCC894200B0F1805F1AD00E4BA0F580010344490B5B0B01F103
S38500421800100210339A4208D3B0F5A00F07D0084B984204D042F2E470704701F11102054B1046197801F03CB80022F8E71000C0FF00C55000C0004020B0F1805F10B517BFA0F580040024640B1034204600F0B6FE4EF6B803984206D1044B20461978BDE8104001F03DB842F2E47010BDC0004020B0F1805F38B52CD0174BA0F580020344FF
S38500421880520B5B0B02F1100410339C421ED3B0F5A00F02D0114B984217D12046104D00F08DFE4EF6B803984203D12978204601F017F872B620464EF24274297808F011FB08F086FBA042FBD062B638BD02F11104E3E70024E1E700BF1000C0FF00C55000C000402013B50446CDE90021FFF7A4FF2046DDE9002100F0AAFD204602B0BDE88E
S385004219001040FFF773BFF0B587B00C46431D00F115050DF10F0626F00F0632461868083353F8041C1746AB4203C73A46F6D11B7820463B70FFF79CFF2046FFF77DFF72B6104B4EF24275324610211B78204608F067FB00F00BFFA842FBD062B610213246204600F071FE45F6A523984207D1064A10212046FFF7B6FF012007B0F0BD002033
S38500421980FBE700BFC0004020C1004020024B586800F00300704700BF000026404FF0E023D3F8842D42F00102C3F8842D0022C3F8502FBFF34F8FBFF36F8F70474FF0E021D1F8843D23F00103F0B5C1F8843D0024D1F8803D43F6E076D1F8802DC3F34E33C2F3C9020133013206EA4415002045EA8077C1F8607FBFF34F8FBFF36F8F0130CA
S38500421A008242F4D80134A342EED8BFF34F8FBFF36F8FF0BD08B1FFF7C1BF70474FF0E0221649D2F8843D23F00103F0B5C2F8843D43F6E076D2F8803DD2F8802DC3F34E330F4CC2F3C902002808BF0C4601330132002006EA4015002145EA81772760BFF34F8FBFF36F8F01318A42F5D801308342EFD8BFF34F8FBFF36F8FF0BD6CEF00E00E
S38500421A8074EF00E04FF0E0220144D2F8843D43F00103C2F8843DD2F8803D03F0070301331B01884204D3BFF34F8FBFF36F8F7047C2F8580FBFF34F8FBFF36F8F1844F0E74FF0E0220144D2F8843D23F00103C2F8843DD2F8803D03F0070301331B01884204D3BFF34F8FBFF36F8F7047C2F85C0FBFF34F8FBFF36F8F1844F0E7034608465A
S38500421B0011460BB1FFF7BEBF70474FF0E0230A4430B5D3F8844D0E4D24F00104C3F8844DD3F8803D0B4C03F00703002808BF2C4601331B01914204D3BFF34F8FBFF36F8F30BD2160BFF34F8FBFF36F8F1944F1E768EF00E070EF00E04FF0E022D2F8143D43F40033C2F8143DBFF34F8FBFF36F8F70474FF0E022D2F8143D43F48033C2F837
S38500421B80143DBFF34F8FBFF36F8F7047BFF34F8FBFF36F8F4FF0E022D2F8143D23F40033C2F8143DBFF34F8FBFF36F8F70474FF0E022D2F8143D23F48033C2F8143DBFF34F8FBFF36F8F704782B08DF807009DF807300BB900BEFDE702B0704782B08DF807009DF807300BB900BEFDE702B07047EFF310807047EFF310807047EFF31080CF
S38500421C007047EFF310807047EFF31080704782B08DF807009DF807300BB900BEFDE702B0704782B08DF807009DF807300BB900BEFDE702B07047000010B50446064803F05FF8002205498D2003F090F80449E0B203F0E0F9002010BDE08D4200895B4200F48D4200002003F07DBA08B5C0B203F043FBB0FA80F0400908BD38B50B46044698
S38500421C8015460021184600F033F82A460146E0B203F0B4FC00280CBF0320022038BD00BF0A44914200F1FF3300D1704710B511F8014B03F8014F9142F9D110BD884210B501EB020402D98442234607D8431EA14208D011F8012B03F8012FF8E7024401468A4200D110BD13F8014D02F8014DF7E702440346934200D1704703F8011BF9E716
S38500421D00FEE7FEE7FEE7FEE7FEE7FEE7FEE7FEE7FEE7FEE74FF0E022D2F80C3D23F4E0631843C2F80C0D70474309012200F01F00403302FA00F04FF0E02242F8230070474309012200F01F00603302FA00F04FF0E02242F823007047090100F1E020C9B280F80014704700002DE9F8431F4B00251E68B54207D11E4C00262768B046BE420F
S38500421D8021D1BDE8F883D3E90101DA680024521A02F0030C9208A24209D101EB820100EB82020020844508D801350C33E1E751F8247040F824700134EDE711F8014B013002F8014BEEE7D4E9013500210136ED1A1846083425F003024FEA9509FFF788FFAA0718BF40F82980C9E700BFF49D4200409E4200144B0C22F0B5144D1E6802FB2E
S38500421E000533B54200D3F0BDD3E90101DA680024521A02F0030C9208A24209D101EB820100EB82020020844508D801350C33E8E751F8247040F824700134EDE711F8014B013002F8014BEEE7F49D4200030000007047FEE7A04B00215B6813F0030F0CBF01200020F0B54B00013103F18043F02903F51813B3F8802892B242EA0002A3F86D
S38500421E808028F0D14FF0E022D2F8883D43F47003C2F8883DBFF34F8FBFF36F8F8F4B00248F491C60D9638F498F4859608F49904D19649049996001F5800158648E48D8608E4898644FF0D85018618D48D8648D4858618D4818658D4898618D4840EA45008C4D58658C48D8618C4840EA45059D658B4D1D628B4D40EA4500D8654FF0804041
S38500421F00586289481866894898624FF0CE405C66D862874898664FF0D04018638548D8664FF0604058638448186799635C67BFF34F8FBFF36F8FD2F8141D8F0303D4D2F8142DD60366D54FF0E0210022C1F8842DBFF34F8FD1F8802D43F6E075C2F3C904C2F34E32520102EA0507204647EA8076C1F8746FBFF34F8F0138F7D2203A12F179
S38500421F80200FF0D1D1F8842D42F00102C1F8842D0022C1F8502FBFF34F8FC1F8842DBFF34F8FD1F8802D43F6E0754FF0E021C2F3C904C2F34E32520102EA0507204647EA8076C1F8746FBFF34F8F0138F7D2203A12F1200FF0D1D1F8842D42F00102C1F8842D0022C1F8502FBFF34F8FD1F8142D22F40032C1F8142DBFF34F8FBFF36F8FCF
S38500422000D1F8142D22F48032C1F8142DBFF34F8FBFF36F8F00224FF0E020114603EB8204E56BED070AD5C0F8981D013153F82250C9B2C0F89C5DE46BC0F8A04D01320F2AECD14FF0E023D3F8942D42F00302C3F8942DBFF34F8FBFF36F8F0022C3F8842DBFF34F8FD3F8802D43F6E074C2F3C900C2F34E32520102EA0406014646EA8175CB
S38500422080C3F8605FBFF34F8F0139F7D2203A12F1200FF0D1BFF34F8FD3F8142D42F48032C3F8142DBFF34F8FBFF36F8FBFF34F8FBFF36F8F0022C3F8502FBFF34F8FBFF36F8FD3F8142D42F40032C3F8142DBFF34F8FBFF36F8FF0BD00002640D80040203F0004100000000029000B071F0008030E000000000042000000001023000B164B
S3850042210019000B1600000020210008030000402001000B030E0000000080402001000C13000041200E0000002DC00413000060401300041335000B0327000413044A536823F04E6323F440231B0C1B045360704700C02E40184B30B1012817D0D3F8942022F480720BE05A6822F0734222F4981242F040425A60D3F8942042F48072C3F852
S385004221809420D3F8942022F0804211E05A6822F0734222F4981242F040425A60D3F8942042F48072C3F89420D3F8942042F08042C3F89420704700BF00C02E40024B1B681B6803B11847704788014020024B1B685B6803B1184770478801402073B5114D002447F6FF70C5F8004121462B6843F480732B6003F0D6FC0646204603F0CBFCCC
S385004222000190296811F4807105D101A803F0C5FC0444A642F5D8034A136823F48073136002B070BD00C02E40F8B50024154D164E47F6FF7021462C60144F03F0B3FC30602046134C03F0A7FC3860236823F001032360616811F4004107D045F6A5200C4A136823F498731360F8BD384603F095FC2B681844336898422860EAD342F6D430B1
S38500422280EDE700BF68014020700140209001402000C02E402DE9F84306460C460F4FDFF84880DFF84890C7F8006300214846D8F8005003F072FC0A4AC5F30745136803441360084A1268934205D2A542EBD145F6A520BDE8F88342F6D430FAE700802640680140207001402000C02E409001402010B558B90D4B024600F1260101300928E9
S3850042230043F82120F8D1C3F8BC2010BD0023074A50F8234003F12601013342F82140092BF6D1436AC2F8BC30EFE700BF00C02E401E4BD3F89420920702D445F6A5207047D3F8942090052ED55968194A0A405A60D3F8942022F40072C3F89420D3F8942022F00202C3F8942040F2C312D3F89410C90701D4013AF9D1D3F8942042F00402B4
S38500422380C3F89420D3F8942042F00042C3F89420D3F89420920503D4D3F89430DB07CCD442F2E47070474EF24270704700C02E40000010F30B4A0C4953680B4007D0516842F2E4700B405360084B1860704730B9064B43F2CC3242F2E4701A60704745F6A520704700C02E4000001033C4024020024A136923F00103136170470080264001
S38500422400044B1A6922F00E021A611A6942F008021A6170470080264010B5FFF7E9FF0446FFF7EEFFFFF700FF064B1A6822F480521A601A6822F400421A60FFF77FFE024B1C6010BD00C02E4088014020ECE62DE9F04106460C461546DFF87C803AB942F6B453C8F80030D8F80000BDE8F0810029F5D04EF2427302460120C8F800300B46E6
S38500422480042100F0E0FCFFF759FEFFF797FE45EA06039A0714D1032C12D9336804272B60FFF794FE0120FFF785FF45F6A5239842D9D1E41B3E443D44E5D1C8F80000D2E7DB0705D4012C03D0338802272B80E7E7337801272B70E3E7C4024020164B0F281A6806D81549D1F848331A43C1F84823704740F20F13984206D11049D1F85833CD
S385004225001A43C1F8582370471038C30900F07F009B005F2803F1804303F51A1305D8D3F85C130A43C3F85C237047D3F840130A43C3F84023704700BF78014020008026400F281B4A0DD81060136801210F2801FA03F1184B1960184B13D8D3F848030840704740F20F13984202D100231360EBE7A0F1100303F07F035F2B94BFDB08603B67
S38500422580F4E740F20F12904202D1D3F85803E6E71038C20900F07F005F2804D8D63203EB82035868DBE7D03253F82200D7E700BF800140207801402000802640B0F5887F08B50AD2FFF7BCFF4FF622234EF6B802002818BF1346184608BD42F2E473FAE7174B0F281A686FEA020206D81549D1F848331A40C1F84823704740F20F1398429F
S3850042260006D11049D1F858331A40C1F8582370471038C30900F07F009B005F2803F1804303F51A1305D8D3F85C130A40C3F85C237047D3F840130A40C3F84023704700BF78014020008026402DE9F843044616460D46424F29B942F6B4533B603868BDE8F8834EF24273024601203B600B46042100F0E9FBEEB94FF6FF78FFF75FFDFFF776
S385004226809DFDA60755D1032D53D926684FF00409701C46424641FFF799FD3046FFF78AFE45F6A5239842D9D1B5EB09054C44E4D120E0FFF743FDFFF781FD44EA060399071BD1032D19D920684FF004093368C21AD2F1000848EB0208FFF778FD4046FFF769FE45F6A5239842B8D1B5EB09054C444E44DED145F6A523AFE7DB070DD4012DBB
S385004227000BD0B4F800804FF002093088A8EB000EDEF1000848EB0E08DEE794F800804FF001093078A8EB000CDCF1000848EB0C08D2E7E10709D4012D07D026884FF00209A6EB080256425641A5E726784FF00109A6F1FF035E425E419DE700BFC4024020014BC3F8000370470080264010B507F075FB4EF242720346904219D00D4A45F674
S38500422780A5241168A04221F001011160116821F4807111600CD1084B1A68084B1968084B1868FFF751FF43F2CC33A04208BF2346184610BD00C02E407C014020740140206C014020194B0F2830B51C68184B24F0030406D8D3F888330B60164B2344136019E040F20F15A84204D1D3F898330B60114BF4E71038C50900F07F005F280BD87B
S3850042280005F1E60003EB80035B680B600B49214401EB0511116030BD05F1E00053F820300B60074B234403EB4513D8E78001402000802640008426408084264084842640C083264037B540F20F1200240D469042CDE900440BD0104BB0F5887F1B6803D345F6A52003B030BD03F00303DC006A4601A9FFF7A7FF094B019A1B681A42EFD0FB
S38500422880009B002BECD01B68E340DBB2AB42E7D042F2E470E6E700BF800140207801402037B505460191FFF789FE42F2E473044698420FD04EF6B80398420ED001992846FFF7C0FF45F6A5230446984202D12846FFF704FE204603B030BD45F6A524F9E737B505460191FFF769FE42F2E473044698420FD04FF6222398420ED001992846D9
S38500422900FFF7A0FF45F6A5230446984202D12846FFF766FE204603B030BD45F6A524F9E700F16543B3F5005F0FD300F17043B3F5803F0CD3A0F58003B3F5001F09D2B0F5A00F34BF0020012070470520704704207047FF2070472DE9F0471F4620F4801306468946B3F5800F904605D0B0F1805F02D0B0F1D85F5DD145F6A52AFFF7D8FC5A
S38500422980054650453AD12E4C2E4BC4F89430D4F89430002B51DA00252B4B6FF0004029461D6003F0FFF8294B1860284603F0F3F8274B9DF8201018603046FFF76BFC4FF0FF3350450546C4F80031D4F8943018D1B9F1010F40460CBF43F0040323F00403C4F89430FFF7B6FB3846FFF781FC144AD2F8943043F00203C2F894302846BDE89E
S38500422A00F08743F00203C4F89430D4F8943023F00203C4F8943040F2C313D4F89420D20701D4013BF9D1D4F8943023F00043C4F89430E3E742F6B455E0E742F2E475DDE700C02E409999F9F9680140207001402090014020024630B5002851D000294FD000232C4C0B60D4F894309B074BD5D4F89430DD074AD5D4F8943013F0400304D0C2
S38500422A80172345F6A5200B6030BD03F1260052F8235054F8200085421CD10133092BF4D145F6A520D4F8BC30546A42F2E47203F00103A34218BF1046164BD3F89440A4050BD55B68104613F0804F14BF302331230B60D9E742F2E470E4E7D3F8942022F02402C3F89420D3F8942022F00202C3F89420D3F8942022F00042C3F89420C3E74D
S38500422B0042F6B450C0E742F6D430BDE74EF24270BAE700BF00C02E40124BD3F8942090071AD5D3F8942012F0410F15D1D3F8942042F04002C3F8942040F2C312D3F89410C90701D4013AF9D1D3F89420520603D5D3F89430DB0702D442F2E470704745F6A520704700C02E40224BD3F8942090071FD5D3F8942002F04102412AD3F8942000
S38500422B801AD122F04002C3F8942040F2C312D3F89410C90701D5013AF9D1D3F8942012F0400F06D1D3F89430DB0702D445F6A520704742F2E47070479005F7D55A6822F0734222F4981242F040425A60D3F8942022F40072C3F8942040F2C312D3F89410C90701D5013AF9D1D3F8942012F4007FD7E700BF00C02E402DE9F0471F4620F4B6
S38500422C00801306468946B3F5800F904605D0B0F1805F02D0B0F1D85F69D145F6A52AFFF787FB0546504546D1344C354BC4F89430D4F89430002B5DDA0025324B6FF0004029461D6002F0AEFF2F4B1860284602F0A2FF2E4B9DF8201018603046FFF71AFB4FF0FF3350450546C4F80031D4F8943024D143F004034846C4F89430FFF76AFAD2
S38500422C80D4F89430B8F1010F384643F02003C4F89430D4F894300CBF43F0100323F01003C4F89430FFF724FB144AD2F8943043F00203C2F894302846BDE8F08743F00203C4F89430D4F8943023F00203C4F8943040F2C313D4F89420D20701D4013BF9D1D4F8943023F00043C4F89430E3E742F6B455E0E742F2E475DDE700BF00C02E40D5
S38500422D009999F9F96801402070014020900140201C4A1D4B12681B69112A1C4808BF1C4A00EA830004BF12688018002B07DA13F4002F0CBF4FF0FF304FF0D850704703F0FC73B3F5800F12D00BD8B3F5801F13D0B3F5001F13D0B3F5002F0AD04FF0FF307047B3F5000F02D0B3F1807FF6D10138704700F58000704700F5A000704700F195
S38500422D80805070476401402000C02E40F8FF1F008C014020014B1870704700BFC002402038B505460C4603F011FA012D03D1032C05D1FEF7D1FE03F023FA002038BD042CF9D1FEF7D6FEF6E738B505460C4603F02FFA012D03D1032C05D1FEF7D7FE03F041FA002038BD042CF9D1FEF7E0FEF6E738B505460C4603F04DFA012D03D1032C31
S38500422E0005D1FEF7CBFD03F05FFA002038BD042CF9D1FEF7D3FDF6E737B505460C46019203F06AFA012D019803D1032C06D1FEF7F1FD03F07BFA002003B030BD042CF8D1FEF7ECFDF5E737B505460C460192009303F084FA012DDDE9001003D1032C06D1FEF710FE03F094FA002003B030BD042CF8D1FEF725FEF5E773B505460C46069E10
S38500422E800192009303F09CFA012DDDE9001004D1032C07D13246FEF731FE03F0ABFA002002B070BD042CF8D13246FEF72EFEF4E770472DE9F047B64D01210446286001F0A7FC2B68002B40F03A81E67AB14FDFF8FC82DFF8FC92002E40F03881A67BAE4FDFF8F082DFF8E892002E40F03F81A67AAA4FDFF8E482DFF8D892002E40F07E8128
S38500422F00667AA74FDFF8D482DFF8C492002E40F086813746DFF8A082DFF8C492DFF8B0A2237ABB4200F28C810027DFF87482DFF8AC92DFF89CA2637ABB4200F2938128680025022101F064FCE27BEBB29A4200F29B81944B1D78002D38D10122924F294628461A707B689847BB6857208A4F98478E4B28461B6898478D4B28461B6898478A
S38500422F80874B28461B6898477B6828469847BB68884F5720984728463B68984729467B6857209847844B7D4F28461B6898477B6828469847BB6857209847764B28465B6898477E4B294628461B68984701237C49E27C9A4200F262810025784FDFF80482DFF8EC91637CAB4200F25F810025704FDFF8F481DFF8D891637BAB4200F266819B
S3850042300000256A4FDFF8E481DFF8C491237BAB4200F26C810025664FDFF8CC81DFF8B091637BAB4200F2728100255C4FDFF8A881DFF89C91A37AAB4200F2798100255A4FDFF88481DFF88891A37CAB4200F281810025534FDFF88481DFF87491637AAB4200F2898100254D4FDFF86C81DFF86091A37AAB4200F291810025474FDFF8548127
S38500423080DFF84C91A37BAB4200F29981DFF8608101234C4F002557210420BB70D8F800303D707D70FD70984701F0DEFBD8F80030572105209847D8F80030572106209847DFF8D09001F0CEFBDFF800A1D8F800305721DFF8208107209847E37AAB4200F280813D78002D40F0B681324FDFF80881DFF8DC90237CAB4200F28D812A4D324F24
S38500423100DFF8CC80A37CB34200F2958120460421BDE8F04701F07CBB1422E06B724301368358104403EBC3034B445B7818F803301B01FB589847A37CB342EDD8C5E60026194FDFF88480DFF88890F4E7206A013E50F8363000EBC60003EBC3034B445B7818F8033057F833309847B4E6013EE06A0C223301C35800EB061003EBC3034B4449
S385004231805B7818F803305343FB589847ACE600BFF0014020AC9D4200109D42007C9D4200D49C4200F40140205C9D4200B49C4200C49C42001C9D42002C9D4200A49D420098014020940140205A9C42006C9C42004B9942007E9C4200759C4200999C4200909C4200639C4200A29C4200AB9C4200BC02402020974200879C4200013E2822BA
S38500423200E069142172438358104403EBC3034B445B7818F803304B43FB5898476DE61421013EA06901FB06F28358104403EBC3034B445B7818F803304B43FB58984765E60C21606901FB07F201378358104403EBC30353445B7819F803304B4358F8033098475DE61421A06901FB07F201378358104403EBC30353445B7819F8033001FB55
S3850042328003835B68984756E6226B013502EBC30152F83300496800F014FC55E6226C52F833208B540133DBB292E61422A06B29466A4301358358104403EBC3034B445B7818F8033057F8233098478BE60C22A06A6A4301358358104403EBC3034B445B7818F8033057F83330984785E60C22606A6A4301358358104403EBC3034B445B7836
S3850042330018F8033057F8233098477FE60C22A06A6A4301358358104403EBC3034B445B7818F8033007EBC3035B68984778E62822E06914216A4301358358104403EBC3034B445B7818F8033001FB03735B68984770E61422E06B29466A4301358358104403EBC3034B445B7818F8033007EB03135B68984768E61421A06901FB05F201352A
S385004233808358104403EBC3034B445B7818F8033001FB03739B68984760E62822E06914216A4301358358104403EBC3034B445B7818F8033001FB0373DB68984758E6E06A2B010C22C35800EB0510013503EBC3034B445B7818F8033002FB03735B68984750E6226A02EBC500436858F82330032B0ED052F83530194A03EBC30313445B783D
S385004234001AF8033009EBC3035B689847013564E601233B70FAE7606B50F8353000EBC500013503EBC3034B445B7818F8033057F8333098475EE61422E06B724301368358104403EBC30343445B78FB5C05EB0313DB68984756E6BDE8F08700BF4B9942002DE9F0471F4F002502241F4EDFF88880B378AB421CD864BB1C4F2546DFF87C801B
S38500423480DFF87C90DFF868A0F3789D4221D257F8040B0C2200EBC00353445B7819F8033002FB03839B689847012811D00135EBE757F8040B0E4B00EBC00213440D4A5B78D35C142202FB03839B689847012803D101242046BDE8F087022805F1010508BF0024C5E71C97420094014020189742004B994200759C42007C9D4200109D420078
S385004235007E9C42002DE9F0412F4D2B682BBBBDE8F0811B6A03EBC400426856F82220032A0CD153F83430294A03EBC30313445B7818F8033007EBC3035B68984701342B68DA7A9442E5D3224B1B78002BDFD00024204E214FDFF8748013E000241F4E204FDFF88880EBE7586B50F8343000EBC400013403EBC30343445B78FB5C56F83330DF
S3850042358098472B681A7C9442EDD30024154E164FDFF838802868837C9C4204D30421BDE8F04101F035B91422C06B624301348358104403EBC30343445B78FB5C06EB0313DB689847E6E700BFF00140204B994200940140201C9D4200879C420020974200AC9D42005C9D42005A9C42006C9C420010B5FFF75EFC064B1C782CB1FFF730FFBF
S38500423600044618B9FFF77EFF204610BD0124FBE794014020054A00EBC0031344044A5B78D25C044B03EB02139B6818474B9942005A9C42005C9D4200014B1860704700BFBC024020064A00EBC00301211344054A5B78D25C044B03EBC2035B68184700BF4B994200879C42001C9D4200064A00EBC00300211344054A5B78D25C044B03EBCA
S38500423680C2035B68184700BF4B994200879C42001C9D420008B5044B0221186801F0B8F8BDE8084001F088B8F001402008B5044B0221186801F0ACF8BDE8084001F084B8F001402008B5044B0221186801F0A0F8BDE8084001F086B8F001402008B5044B0221186801F094F8BDE8084001F082B8F0014020014B1B68184700BFBC024020A3
S38500423700F8B5074600200E4614461D4602F043FA002138602846316002F044FA2060F8BD38B50C460021154602F037FA23681844A842206034BF0020012038BD704710B5D0B14368C3B10268013B0C4902EBC2021B04885C8C180A4A03F47023617952F8302002EB8102D2F8801021F470210B4343F00043C2F8803010BD00BF4B99420021
S385004237804098420098B10368094A03EBC303D25C084B53F8321043688A68012B22F0FC4238BF01235B0603F0FC4313438B6070474B99420040984200F0B5064685B000283FD002681425224802EBC20273688118805C0A794C7905FB00221E4850F8225073B18F7805EB84001B49013B826801EB0711CF688968BB4053400B405340836006
S385004238004CF2503303AA02A901A8FFF779FFEF6B02A9039A01A8FFF783FFFB0706D50028F5D031680120FFF765FF0AE00028F8D124B2736805EB84042BB1A36843F00043A36005B0F0BDA36823F00043F8E700BF4B9942005C984200F8944200704780B103680A4A03EBC303D118D25C0B79142101FB0233064A52F82330426812B1012267
S385004238805A6370475A6B22F00102F9E74B9942005C9842007FB5044640B3436833B3036801A8134A03EBC303D118D25C0B79142101FB02330F4A02A952F82350012303AAAB634CF25033FFF71BFFEE6B02A9039A01A8FFF725FFF30706D50028F5D021680120FFF707FF01E00028F8D104B070BD4B9942005C9842007047704758B10368A0
S38500423900054A03EBC303D25C044B53F82220136823F00103136070474B99420050984200E0B10389D3B103680D4A03EBC303D25C0C4B53F822104389427B1B04120603F47F0302F080721343027B43EAC273827B1201D2B2134343F001030B60704700BF4B99420050984200054B00EBC0001A5C044B53F82220136823F001031360704720
S385004239804B9942005098420070B10389012B0BD10368064A03EBC303D25C054B53F82220136843F001031360704700BF4B99420050984200A2E780B1038973B10368074A03EBC303D25C064B53F8222043891B0403F47F0343F00103136070474B994200509842007FB5044618B303890BB3037B016803BB01EBC101124B03AA01A85D5CC8
S38500423A004CF2503302A9FFF77BFE0F4B53F825506E6802A9039A01A8FFF782FE002E06DB0028F5D021680120FFF764FE01E00028F8D104B070BD022004B0BDE87040FFF759BE00BF4B994200509842007FB5044628B303891BB3437B0BB3037B016803BB01EBC101124B03AA01A85D5C4CF2503302A9FFF745FE0F4B53F825506E6802A9A6
S38500423A80039A01A8FFF74CFE002E06DB0028F5D021680120FFF72EFE01E00028F8D104B070BD022004B0BDE87040FFF723BE00BF4B99420050984200704770477047002070477047704770472DE9FF410446002873D003683A4A03EBC30381881344394A9B7912F8336002EBC302374B5778556853F82630002930D053F8271029425CD165
S38500423B0053F82710DFF8C880294343F827102F4B53F826301A6842F001021A605A6842F001025A6000F03EFD4CF2503303AA02A901A8FFF7E5FD039A02A901A8FFF7F0FD58F8263053F827302B4234D10028F2D021680120FFF7CEFD2FE053F8271029422BD053F82710DFF8688021EA050143F82710164B53F826301A6842F001021A60EB
S38500423B805A6842F001025A6000F00CFD4CF2503303AA02A901A8FFF7B3FD039A02A901A8FFF7BEFD58F8263053F827302B4202D00028F2D0CCE70028CAD104B0BDE8F0814B994200208E420088974200689742007897420007B581F0010100906846ADF80410FFF771FF03B05DF804FB70477047024A936843F001039360704700002D4079
S38500423C00024A936823F001039360704700002D40024AD36843F48073D360704700802C40024AD36823F48073D360704700802C40F0B5044685B000282BD0C379013BDBB2022B26D8174A526E520F052A23D1164A02A9164E01A8D55C4CF2503303AAFFF74FFDD6F8887102A9039A01A8FFF758FD002F06DB0028F4D021680120FFF73AFDAE
S38500423C8007E00028F8D1074A536E23F003031D43556605B0F0BD01680A2005B0BDE8F040FFF728BD00C03940E885420000C02D4030B18288054B22B19A6842F001029A6070479A6822F00102F9E700BF00002D4030B18288054B22B1DA6842F48072DA607047DA6822F48072F9E700BF00802C4000F0E0B8704770477047F0B5002869D0E5
S38500423D000268354B02EBC204344E23441B7A06EB0316D0E9025300796A40F4685A4042402F4850F82170974253D040F821202D4A2D481268116C7268825C01EBC2025268B2F57A7F45D3B668805D01EBC0014968B1F57A7F3DD3B3F57A7F3AD34FF47A7640F2C737B2FBF6F2B1FBF6F1B3FBF6F302EB420057430A26B0FBF1F002EB8201DE
S38500423D800130B1FBF3F10931884238BF084640F2F3314343704359436060B1FBF7FC07FB1C117143B1FBF7F140F2DD3706FB0C117B4340F2094704317A43A160B3FBF2F702FB17337343B3FBF2F306FB0733033BE3606561F0BD00BF4B99420098974200F8014020F00140209801402078B10368094A03EBC303017913441A7A074B03EB4A
S38500423E000213DA68136819B143F001031360704723F00103FAE700BF4B994200989742007FB500EBC0021A4B054613441A7A194B03EB0213DC6803F09FF82368DA071BD54CF2503303AA02A901A8FFF759FC266902A9039A01A8FFF763FCF30606D40028F5D029460120FFF745FC01E00028F8D1236823F001032360636923F00F0363618D
S38500423E80236943F00303236103F090F804B070BD4B9942009897420008B10068C0E77047034B53F82030186900F00300704700BF24984200F8B50D4D00240D4E0D4F55F8042B3168136903F0030361B151690B4005D057F8241000201361FFF70BFC0134072CECD1F8BD1361F9E700BF24984200F00140200898420070470220704770471D
S38500423F0010B590B103680E4A03EBC303D25C0D4B03EBC20153F8322000230C79D9B28C4204D8136843F00043136010BD02EB83000133D0F8801021F00041C0F88010EDE74B9942004098420010B5002844D08388002B41D00368214A03EBC303047DD25C1F4B53F83220437B91681B0321F4E14103F4E04321F07F012343448A0B431949CD
S38500423F80C4F30E04936013691940037F9B0703F0804323430B431361447D837DA107002C4FEA437301F0804103F0005343EA0103418B008BC1F30A0143EA01030A4901EA004143EA0103D3600CBF802300239361136823F00043136010BD00BF4B994200409842000080FFBF0000FF0370B18388012B0BD10368064A03EBC303D25C054B19
S3850042400053F83220136823F000431360704700BF4B994200409842007FB500EBC003134A0446D25C124B53F832502B68002B1BDB4CF2503303AA02A901A8FFF761FB6E6802A9039A01A8FFF76BFB730708D40028F5D001202146FFF74DFB012004B070BD0028F6D10220F9E70020F7E74B994200409842007047F0B500287FD0C4680268F2
S3850042408006694A4FD0E901C584EA0200704080EA0C0080EA050357F8210098426ED047F8213002EBC202424B04EBC40441481B68414902441B6C497810F804E003EBC103D0793E4A5F6805FB0CF340F6381C3C4CB6FBF2F6B7FBF2F73A4A0CFB06FC54F82E405343B3FBFCF2642A48D8634534BF11460C21052A08D90A2A54D90F2A50D924
S38500424100142A8CBF4FF47A71B8214FF4FA1307FB01FC03FB06F2B3FBF1F3B2FBFCF2D21A4FF0804C02F5807294452BD80023BCF1000F2AD19B007D43BF33ADB2DA09256000EB400502FB01F3C9B204EB850541EA034102FB03330C2269604FF47A715B0802FB00404E4303F2E733B6FBF7F7013FC3F31303C7F31307AF60C360F0BD4FF48E
S385004241807A71C2E74FEA9C0CCEE70CEB030E96459CBF03EB4C03A2EB0E024FEA9C0C5B08C5E77021B1E73021AFE700BF08024020F00140204B9942009801402040420F0058984200A0860100704710B5C0B103680C4803EBC3030C4CC1188A781201A458C25C0B79142101FB0233084A52F82330196841F0080119601A6822EA04021A60D7
S3850042420010BD00BF4B994200F89442005C984200DBE72DE9FF41044600286ED0384A394ED0E90031384803EBC30332F81150C1188A78170106EB0212F759D2F80480C25C0B79142101FB0233304A52F8236073683B4023FA08F3AB424FD04CF2503303AA02A901A8FFF74CFA02A9039A01A8FFF757FA7368D90304D50028F5D0216801200A
S3850042428039E00028FAD1336805FA08F503AA02A95D4001A83D405D404CF2503345F007053560FFF72DFA039A02A901A8FFF738FA73685A0702D40028F5D0DFE70028DDD14CF2503303AA02A901A8FFF719FA039A02A901A8FFF724FA7368DB0302D50028F5D0CBE70028C9D17368C3F34243012B03D021680320FFF7FDF904B0BDE8F0817B
S38500424300D0984200F89442004B9942005C9842002DE9FF41044600286ED0394A394ED0E90031394803EBC30332F81150C1188A78170106EB0212F759D2F80480C25C0B79142101FB0233314A52F8236073683B4023FA08F3AB424FD04CF2503303AA02A901A8FFF7CDF902A9039A01A8FFF7D8F97368D90304D50028F5D02168012039E091
S385004243800028FAD1336805FA08F503AA02A95D4001A83D405D404CF2503345F004053560FFF7AEF9039A02A901A8FFF7B9F973685A0702D40028F5D0DFE70028DDD14CF2503303AA02A901A8FFF79AF9039A02A901A8FFF7A5F97368DB0302D50028F5D0CBE70028C9D17368C3F34243012B03D021680320FFF77EF904B0BDE8F08100BF56
S38500424400D0984200F89442004B9942005C9842002DE9FF410546002855D02C4A2C4CD0E900312C4803EBC30332F81160C1188A78170104EB0212E759D2F80480C25C01A80B79142101FB0233234A02A952F8234003AA236843F00C0323604CF25033FFF74FF9039A02A901A8FFF75AF963689A0304D50028F5D0296801201FE00028FAD195
S38500424480236806FA08F603AA02A95E4001A83E405E402660236823F00C0323604CF25033FFF72EF9039A02A901A8FFF739F963689B0306D40028F5D029680320FFF71AF901E00028F8D104B0BDE8F081D0984200F89442004B9942005C9842002DE9FF41064600283DD003681F4A2048D55C03EBC3031F4CC1188A78170104EB0212E7598D
S38500424500D2F80480C25C01A80B79142101FB0233184A02A952F8234003AA236843F00C0323604CF25033FFF7EBF8039A02A901A8FFF7F6F863689B0306D50028F5D031680120FFF7D7F80CE00028F8D1236805FA08F55D403D405D402560236823F00C03236004B0BDE8F081F49842004B994200F89442005C9842004068064B064933F819
S3850042458010304A681B0322F4405203F4405313434B607047AC9842000080284008B1FFF7EBBF7047034B45F6F0221A604AF20F521A60704700C02D401FB57E4CD4F81433DA012CD4D4F8343302A901A843F08073C4F83433D4F8003343F00103C4F80033D4F8043343F00103C4F80433FFF7DAFF4CF2503303AAFFF783F8039A02A901A89E
S38500424600FFF78EF8D4F81433DB0106D40028F4D007210120FFF76EF801E00028F8D1654CD4F8143398022CD4D4F8343302A901A843F40013C4F83433D4F8003343F00103C4F80033D4F8043343F00103C4F80433FFF7A8FF4CF2503303AAFFF751F802A9039A01A8FFF75CF8D4F81433990206D40028F4D005210120FFF73CF801E0002833
S38500424680F8D14C4CD4F814331A032CD4D4F8343302A901A843F40023C4F83433D4F8003343F00103C4F80033D4F8043343F00103C4F80433FFF776FF4CF2503303AAFFF71FF8039A02A901A8FFF72AF8D4F814331B0306D40028F4D006210120FFF70AF801E00028F8D1334CD4F8143318042CD4D4F8343302A901A843F40043C4F83433C1
S38500424700D4F8003343F00103C4F80033D4F8043343F00103C4F80433FFF744FF4CF2503303AAFEF7EDFF02A9039A01A8FEF7F8FFD4F81433190406D40028F4D057210120FEF7D8FF01E00028F8D11A4CD4F81033DA012CD4D4F8303302A901A843F08073C4F83033D4F8003343F00103C4F80033D4F8043343F00103C4F80433FFF712FF9C
S385004247804CF2503303AAFEF7BBFF039A02A901A8FEF7C6FFD4F81033DB0106D40028F4D057210120FEF7A6FF01E00028F8D104B010BD00BF00C02D40024B01201B689B68184700BF100240201FB5012301A8ADF80830034B1B685B68984705B05DF804FB10024020024B03201B689B68184700BF140240201FB5012301A8ADF80830034B40
S385004248001B685B68984705B05DF804FB14024020012917D0022917D10C4B1A78A2B901220B490C481A70CB780B4A03EB430302EB830303608B7803EB430302EB8302074B1A607047FFF7B8BE704700BF0C024020909C4200140240202C9D42001002402003F0BEBEFFF7FCBF03F098BE7047F8B51C4607460E461546FDF788F8054B23F806
S385004248801070054B1E54054B1D54054B1C540020F8BD00BF3C804020488040201880402020804020F8B51C4607460E461546FDF76DF8054B23F81070044B1E54044B1D54044B1C540020F8BD28804020348040203880402044804020F8B51C4607460E461546FDF753F8054B23F81070044B1E54044B1D54044B1C540020F8BD10804020E7
S385004249001C8040202480402030804020704700BF2DE9F843DFF8549080460F461D461646FDF734F839F810300446DFF844E04345DFF840C00C4915D11EF80030BB4211D11CF80030B3420DD10A5C531B58425841002329F814300EF804300CF804300B55BDE8F8830020F3E7208040203C80402048804020188040202DE9F843DFF8549014
S3850042498080460F461D461646FDF700F839F810300446DFF844E04345DFF840C00C4915D11EF80030BB4211D11CF80030B3420DD10A5C531B58425841002329F814300EF804300CF804300B55BDE8F8830020F3E7448040202880402034804020388040202DE9F843DFF8549080460F461D461646FCF7CCFF39F810300446DFF844E0434568
S38500424A00DFF840C00C4915D11EF80030BB4211D11CF80030B3420DD10A5C531B58425841002329F814300EF804300CF804300B55BDE8F8830020F3E730804020108040201C8040202480402070B50E4EFCF79EFF0D4D36F810300D4C0D4983B92B5C73B9235C63B90B5C003B18BF0123002226F810202A5422540A5483F0010070BD0123EF
S38500424A80F4E700BF3C80402048804020188040202080402070B50E4EFCF778FF0D4D36F810300D4C0D4983B92B5C73B9235C63B90B5C003B18BF0123002226F810202A5422540A5483F0010070BD0123F4E700BF2880402034804020388040204480402070B50E4EFCF752FF0D4D36F810300D4C0D4983B92B5C73B9235C63B90B5C003B2E
S38500424B0018BF0123002226F810202A5422540A5483F0010070BD0123F4E700BF108040201C8040202480402030804020032838B50446D4BF002001204FF0E025FDF744F8D42C04F11004CCBF00200120FDF73CF80A48D5F8083D98428CBF00200120FDF733F8D5F8083D12B153F82400106043F82410BFF36F8FBFF34F8F38BD00000020C9
S38500424B800246C0434FF0E021C00F08B5FDF71CF8D42ACCBF00200120FDF716F80120530902F01F02403300FA02F241F8232008BD0246C0434FF0E021C00F08B5FDF704F8D42ACCBF00200120FCF7FEFF0120530902F01F02603300FA02F241F8232008BD0328024608B5D4BF00200120FCF7ECFFD42A02F1E022CCBF00200120FCF7E4FFC6
S38500424C000F294FEA01118CBF00200120C9B2FCF7DBFF82F8001408BD0328024608B5D4BF00200120FCF7D0FFD42A02F1E022CCBF00200120FCF7C8FF92F80004000908BD0246C0434FF0E021C00F08B5FCF7BCFFD42ACCBF00200120FCF7B6FF0120530902F01F02A03300FA02F241F8232008BD0246C0434FF0E021C00F08B5FCF7A4FF31
S38500424C80D42ACCBF00200120FCF79EFF0120530902F01F02803300FA02F241F8232008BD0246C0434FF0E021C00F08B5FCF78CFFD42ACCBF00200120FCF786FF530902F01F02803351F82300D04000F0010008BD0246C0434FF0E021C00F08B5FCF774FFD42ACCBF00200120FCF76EFF530902F01F02C03351F82300D04000F0010008BD3A
S38500424D00F8B5044600384FF000064FF00C0718BF0120FCF759FF20685F288CBF00200120FCF752FF2368B34201D80020F8BD07FB06F563685859FFF783FF63685A1958595179FFF74DFF63680022591958598968FFF7ECFE63685A19585912791AB1FFF70FFF0136DEE7FFF723FFFAE7FFF7DEBEFFF706BFFFF71CBFFFF732BFFFF74CBFC4
S38500424D80FFF75EBFFFF774BF08B5FFF789FF003818BF012008BD08B5FFF79AFF003818BF012008BD1E4B1F4A53F820101E4B52F8202053F8203070B5586855690446012D14F8012B05D8D8685C600138D8600A7770BDDE6892B25C60012E10D1D8680138D860022DC2F30023D4B24FEA83700ED18A6922F0804202438A610C77E8E74478F4
S38500424E000230586042EA0422D8680238E8E78B69C2F3402223F04043034343EAC272EBE7D49D42008C8040206C804020204A214B10B552F8204053F8201062691E4B012A53F8203098680FD8CA690270626922B999680A7802F07F020A709A6801329A601A69013A1A6110BD022A15D18C69CA69E10FD2B242EA01221C69D1B2012C0170AC
S38500424E80EBD09968120A481C98604A709A6801329A601A69023AE5E78A698C69C969520DE40FC9B202F4007241EA04210A43E3E78C804020D49D42006C80402038B50C460021154600F069FE23681844A842206034BF0020012038BD70B5154606460C46002000F058FE00213060284600F05AFE206070BD30B5002385B00393214B53F8F3
S38500424F002040214B53F82050A36923F00063A361A36923F08073A361A36923F08063A361A36923F00073A361A36923F40013A361EB69062B0ED1154A02A901A8FFF7CCFF6369029A9B0212D5029A03A901A8FFF7B5FF98B9A36923F48023A361E36900236B75EA69022A00D1EB6105B030BD03A901A8FFF7A3FF0028E2D0E5E70323EB61E4
S38500424F80E8E700BFD49D42006C80402040420F0030B5002385B003931B4B53F820401B4B53F82050AB69022B03D0A36923F40003A361A36902A9164A01A823F48003A361FFF78AFF6369029A5B0212D5029A03A901A8FFF773FF98B9A36923F40023A361AB69022B4FF0000300D1AB612B7505B030BD03A901A8FFF761FF0028E2D0E5E798
S385004250000323AB61E8E700BFD49D42006C80402040420F000728024670B58CBF00200120FCF7DCFD081E0D46494918BF0120FCF7D5FD51F82200B0FA80F04009FCF7CEFD287A20288CBF00200120FCF7C7FD686841F6FE73013898428CBF00200120FCF7BDFD3C4B6E6A53F822403B4B41F82260002143F8225020226B69032B09BFE868E8
S385004250800120B0FA80F04009FCF7A8FD3046FCF72FFE324B2361324B63610023A3612B7A072B03D8226942F400322261013B22691B0622F0F85203F0F8531343236122696B6822F4FF52C3F30C0322F01F021343EA6823616B69002A2FD0022B1ED1236943F00053236122F00101A36902F0010223F002030B43A361A36923F00103134339
S385004251002A69A361236923F4005343EA423323610023B361F3612B68336070BD3BB9A36923F40163A361236923F00053DAE7A16921F0100141EA0313F4E7032BCFD01BB9A36943F40063EDE7A169013BF0E700BF6C804020D49D42008C8040200400000F00C01FC00728264AF0B50546254E85B08CBF00200120FCF731FD56F825700023DE
S3850042518002A9381E0393204B18BF012053F82540FCF724FD01A8FFF79FFE3B7D0BB97B7D33B1029A03A901A8FFF788FE0028F4D0029A03A901A8FFF781FEF8B9A36946F8250023F40003A361A36923F48003A361A36923F40013A361A36923F00063A361A36923F08073A361A36923F08063A361A36923F00073A36105B0F0BD0120FBE797
S3850042520040420F006C804020D49D420007282DE9F043064685B08CBF002001209946FCF7DDFC081E8846174618BF0120FCF7D6FC101E18BF0120FCF7D1FC002303932C4B53F826502B4B53F82640201E18BF0120FCF7C4FC02F06CFC237D43BB0123237502F080FC0223E7604A46A36102A9AB6901A8C4F8048023F40003AB61AB6923F416
S385004252808003AB61AB6943F40023AB61FFF724FEE368029A8BB9AB6903A9029A01A823F40023AB61FFF70AFED8B9A0611BE002F059FC022005B0BDE8F08303A901A8FFF7FDFD0028E7D13046FFF76CFD6B69029A1B02DDD403A901A8FFF7F0FD0028F5D0D6E70323A36100232375A069E2E700BFD49D42006C80402007282DE9F0470446B9
S385004253008CBF00200120DFF8ACA0FCF767FC081E0F46164618BF0120FCF760FC101E18BF0120FCF75BFC5AF82490204BB9F1000053F8248018BF0120FCF750FC02F02AFC99F8143003F0FF05C3B9012389F8143002F03AFCB8F1000018BF0120FCF73EFCD8F8180001288CBF00200120FCF736FCD8F81830012B06D0284602E002F024FC94
S385004253800220BDE8F0870A4B02215AF8242053F82430D660576091619A6942F400229A619A6942F400029A61E6E700BF8C804020D49D42006C8040200728024670B58CBF00200120FCF70AFC134B0D4653F82240124B201E53F8222018BF0120FCF7FEFB101E18BF0120FCF7F9FB89B19369012B0ED102F097FCA669237D03F0FF022BB13B
S38500425400E3682B6002F0A8FC304670BD2A60F9E702F088FCA669F5E76C8040208C8040200728024638B58CBF00200120FCF7D6FB124B53F82250124B53F82240114B201E53F8221018BF0120FCF7C8FB081E18BF0120FCF7C3FB237D5BB10623A3618B69012B02D11046FFF793FDAB6A43F40043AB62A069C31E5842584138BDD49D4200DD
S385004254806C8040208C80402007282DE9F04F064691B08CBF002001209946FCF79FFB081EDFF850B18846174618BF0120FCF796FB101E18BF0120FCF791FB4D4B5BF8264053F826500023E01A039318BF0120FCF785FB02F091FB637D002B7ED10123637502F0A4FB022327614A46E36102A9AB6901A8C4F8088004AF23F400130DF1200894
S385004255000DF13009AB61AB6943F48023AB61FFF7E3FCDFF8E4C0DDF808A05BF826B09CE80F0087E80F000CF110030CF1200C0FCB88E80F009CE80F0089E80F00DBF810307BB3524603A901A8FFF7B8FC48BB6B699A0206D4524603A901A8FFF7AFFC0028F5D000223846114650F804CB6B6923FA0CF3DB0706D558F82230CBF81C3059F89D
S38500425580223019430132042AEED161B3AB6923F48023AB616B6923F0C02323F4F8130B436B61029A03A901A8FFF788FC08B10323E361E369022B01D10023E36123691BB9E269052A00D1E361AB6923F48023AB6100236375EB69E06902E002F027FB022011B0BDE8F08F3046FFF720FCA6E700BFD49D42006C804020EC85420007282DE938
S38500425600F04704468CBF00200120DFF8E4A0FCF7E5FA081E0F46164618BF0120FCF7DEFA101E18BF0120FCF7D9FA5AF824902E4BB9F1000053F8248018BF0120FCF7CEFA02F00CFB99F8153003F0FF05C3B9012389F8153002F01CFBB8F1000018BF0120FCF7BCFAD8F8180001288CBF00200120FCF7B4FAD8F81820012A06D0284602E041
S3850042568002F006FB0220BDE8F0875AF82400174B4275022253F824300661C2615A69876022F0C02222F4F81242F470225A619A6A42F480429A629A6942F480229A619A6942F000629A619A6942F080729A619A6942F080629A619A6942F000729A619A6942F400129A61C9E78C804020D49D42006C8040200728024670B58CBF0020012055
S38500425700FCF76CFA134B0D4653F82240124B201E53F8222018BF0120FCF760FA101E18BF0120FCF75BFA89B19369012B0ED102F0C7FAE669637D03F0FF022BB123692B6002F0D8FA304670BD2A60F9E702F0B8FAE669F5E76C8040208C8040200728024638B58CBF00200120FCF738FA164B53F82250164B53F82240154B201E53F8221091
S3850042578018BF0120FCF72AFA081E18BF0120FCF725FA637D9BB10623E3618B69012B02D11046FFF7A7FB6B6923F0C02323F4F81343F470236B61AB6A43F48043AB62E069C31E5842584138BDD49D42006C8040208C80402007282DE9F04705468CBF00200120FCF7FBF9394B53F82540384B53F82550281E18BF0120FCF7F0F92B7D002BAF
S3850042580061D16B7D002B5ED1101E4FEA810718BF0120FCF7E3F9B2EB810F2CBF01200020FCF7DCF9B2FBF7F39EB2B300B2FBF3F3B2FBF1FC994234BFA3EB0108A1EB0308BCF1200F08D8BCF1040F07D80420226942F40032226120E04FF0200C07EB010E04200527B2FBFEFA1FFA8AF38E447B43B2FBF3F3994234BFA3EB0109A1EB0309C5
S38500425880C14598BF384607F101079CBF1FFA8AF6C846BC45E6D20728D9D901382269C6F30C06000622F0F85200F0F850104320610020226922F4FF5222F01F02324322612B60BDE8F0870220FBE700BFD49D42006C8040200728024608B58CBF00200120FCF77CF9081E18BF0120FCF777F9034B53F822301B680B6008BD00BF6C804020F4
S38500425900072810B504468CBF00200120FCF766F9081E18BF0120FCF761F9101E18BF0120FCF75CF9024B53F824305960DA6010BD6C804020072810B504468CBF00200120FCF74CF9081E18BF0120FCF747F9101E18BF0120FCF742F9024B53F8243099601A6110BD6C80402007282DE9F14F0546824F8CBF00200120FCF730F9804B57F86F
S38500425980251053F8254059B9E369636923F0C02323F4F81343F47023636101B0BDE8F08F6269784EC2F3C043120356F825805CD5A069C0F3C06200010AD50523CB61636923F0C02323F4F81343F40023636100236069C0F3404C800310D57BB9A069C0F3406E800143D50722CA61626922F0C02222F4F81242F40032626172466069C0F3E3
S38500425A00004CC00310D57BB9A069C0F3006EC0012FD50822CA61626922F0C02222F4F81242F48032626172466069400323D52BBBA369580122D50923CB61636923F0C02323F4F81343F480236361D8F81830012B02D12846FFF74EFAD8F81C3073B1D8F8202003212846984708E01A46B0E76346C4E76346D8E70BB9002AE6D163699A02E4
S38500425A80C3F3405824D5A369C3F3405A9B021FD557F825B0284656F82590FFF7C7F9DBF8101031B9D9F81C301BB1D9F8202028469847DBF810305BB92846FFF71BFAD9F81C302BB1D046D9F8202002212846984763691802C3F3C05A03D5B8F1000F25D0D04663695A027FF558AFB8F1000F7FF454AFA3695B027FF550AF57F82530DB68A6
S38500425B00002B7FF44AAF56F82540A369012B02D12846FFF73DFAE369002B3FF43EAF226A0221284601B0BDE8F04F1847A3691902C3F3C058D5D557F82590D9F80C30002BCED0284656F825B0FFF72CF9D9F80C303BB9DBF81C3023B1DBF82020012128469847D9F80C30002BBAD1A36923F40003A361A36943F48003A361B2E76C8040200E
S38500425B80D49D42008C8040200020FFF7EDBE08B100BEFDE7704700207047B1FA81F0400970477047002918BF002070474FF0E02300226FF07F411A6159619A6105221A6170474FF0E023986920F07F4070474FF0E02103688A6922F07F42934205D24969891A0B440260184670479B1AFAE7000008B5FBF7CBFE094B53F820203AB9EFF31B
S38500425C001082D10700D472B6054941F8202053F82020013243F8202008BD00BFCC804020DC80402008B5FBF7B1FE084B53F82020013A43F82020064A52F82020D20703D453F8203003B962B608BD00BFCC804020DC80402008B5FBF799FE094B53F820203AB9EFF31082D10700D472B6054941F8202053F82020013243F8202008BD00BFCF
S38500425C80AC804020BC80402008B5FBF77FFE084B53F82020013A43F82020064A52F82020D20703D453F8203003B962B608BD00BFAC804020BC80402008B5FBF767FE094B53F820203AB9EFF31082D10700D472B6054941F8202053F82020013243F8202008BD00BF9C8540205C84402008B5FBF74DFE084B53F82020013A43F82020064A7E
S38500425D0052F82020D20703D453F8203003B962B608BD00BF9C8540205C84402008B5FBF735FE094B53F820203AB9EFF31082D10700D472B6054941F8202053F82020013243F8202008BD00BF6C8140205C82402008B5FBF71BFE084B53F82020013A43F82020064A52F82020D20703D453F8203003B962B608BD00BF6C8140205C8240207E
S38500425D8008B5FBF703FE094B53F820203AB9EFF31082D10700D472B6054941F8202053F82020013243F8202008BD00BF5C8540208C82402008B5FBF7E9FD084B53F82020013A43F82020064A52F82020D20703D453F8203003B962B608BD00BF5C8540208C82402008B5FBF7D1FD094B53F820203AB9EFF31082D10700D472B6054941F8EB
S38500425E00202053F82020013243F8202008BD00BFEC844020CC85402008B5FBF7B7FD084B53F82020013A43F82020064A52F82020D20703D453F8203003B962B608BD00BFEC844020CC85402008B5FBF79FFD094B53F820203AB9EFF31082D10700D472B6054941F8202053F82020013243F8202008BD00BF7C8640207C81402008B5FBF710
S38500425E8085FD084B53F82020013A43F82020064A52F82020D20703D453F8203003B962B608BD00BF7C8640207C81402008B5FBF76DFD094B53F820203AB9EFF31082D10700D472B6054941F8202053F82020013243F8202008BD00BF9C844020DC81402008B5FBF753FD084B53F82020013A43F82020064A52F82020D20703D453F820305C
S38500425F0003B962B608BD00BF9C844020DC81402008B5FBF73BFD094B53F820203AB9EFF31082D10700D472B6054941F8202053F82020013243F8202008BD00BF1C844020FC84402008B5FBF721FD084B53F82020013A43F82020064A52F82020D20703D453F8203003B962B608BD00BF1C844020FC84402008B5FBF709FD094B53F820208D
S38500425F803AB9EFF31082D10700D472B6054941F8202053F82020013243F8202008BD00BF1C824020AC86402008B5FBF7EFFC084B53F82020013A43F82020064A52F82020D20703D453F8203003B962B608BD00BF1C824020AC86402008B5FBF7D7FC094B53F820203AB9EFF31082D10700D472B6054941F8202053F82020013243F8202033
S3850042600008BD00BFDC834020FC80402008B5FBF7BDFC084B53F82020013A43F82020064A52F82020D20703D453F8203003B962B608BD00BFDC834020FC80402008B5FBF7A5FC094B53F820203AB9EFF31082D10700D472B6054941F8202053F82020013243F8202008BD00BF5C8340206C86402008B5FBF78BFC084B53F82020013A43F89C
S385004260802020064A52F82020D20703D453F8203003B962B608BD00BF5C8340206C86402008B5FBF773FC094B53F820203AB9EFF31082D10700D472B6054941F8202053F82020013243F8202008BD00BF3C814020DC85402008B5FBF759FC084B53F82020013A43F82020064A52F82020D20703D453F8203003B962B608BD00BF3C8140203E
S38500426100DC85402008B5FBF741FC094B53F820203AB9EFF31082D10700D472B6054941F8202053F82020013243F8202008BD00BF0C8340201C86402008B5FBF727FC084B53F82020013A43F82020064A52F82020D20703D453F8203003B962B608BD00BF0C8340201C86402008B5FBF70FFC094B53F820203AB9EFF31082D10700D472B6F3
S38500426180054941F8202053F82020013243F8202008BD00BF2C854020AC83402008B5FBF7F5FB084B53F82020013A43F82020064A52F82020D20703D453F8203003B962B608BD00BF2C854020AC83402008B5FBF7DDFB094B53F820203AB9EFF31082D10700D472B6054941F8202053F82020013243F8202008BD00BF8C8440203C8540202D
S3850042620008B5FBF7C3FB084B53F82020013A43F82020064A52F82020D20703D453F8203003B962B608BD00BF8C8440203C85402008B5FBF7ABFB094B53F820203AB9EFF31082D10700D472B6054941F8202053F82020013243F8202008BD00BF0C864020BC86402008B5FBF791FB084B53F82020013A43F82020064A52F82020D20703D4E7
S3850042628053F8203003B962B608BD00BF0C864020BC86402008B5FBF779FB094B53F820203AB9EFF31082D10700D472B6054941F8202053F82020013243F8202008BD00BFAC8140206C82402008B5FBF75FFB084B53F82020013A43F82020064A52F82020D20703D453F8203003B962B608BD00BFAC8140206C82402008B5FBF747FB094BF9
S3850042630053F820203AB9EFF31082D10700D472B6054941F8202053F82020013243F8202008BD00BF2C8340200C84402008B5FBF72DFB084B53F82020013A43F82020064A52F82020D20703D453F8203003B962B608BD00BF2C8340200C84402008B5FBF715FB094B53F820203AB9EFF31082D10700D472B6054941F8202053F82020013247
S3850042638043F8202008BD00BFBC8440208C85402008B5FBF7FBFA084B53F82020013A43F82020064A52F82020D20703D453F8203003B962B608BD00BFBC8440208C85402008B5FBF7E3FA094B53F820203AB9EFF31082D10700D472B6054941F8202053F82020013243F8202008BD00BF3C8640202C81402008B5FBF7C9FA084B53F82020D6
S38500426400013A43F82020064A52F82020D20703D453F8203003B962B608BD00BF3C8640202C81402008B5FBF7B1FA094B53F820203AB9EFF31082D10700D472B6054941F8202053F82020013243F8202008BD00BFEC814020BC82402008B5FBF797FA084B53F82020013A43F82020064A52F82020D20703D453F8203003B962B608BD00BFBE
S38500426480EC814020BC82402008B5FBF77FFA094B53F820203AB9EFF31082D10700D472B6054941F8202053F82020013243F8202008BD00BF6C8340204C84402008B5FBF765FA084B53F82020013A43F82020064A52F82020D20703D453F8203003B962B608BD00BF6C8340204C84402008B5FBF74DFA094B53F820203AB9EFF31082D107F2
S3850042650000D472B6054941F8202053F82020013243F8202008BD00BFCC8240209C83402008B5FBF733FA084B53F82020013A43F82020064A52F82020D20703D453F8203003B962B608BD00BFCC8240209C83402008B5FBF71BFA094B53F820203AB9EFF31082D10700D472B6054941F8202053F82020013243F8202008BD00BF2C8240209C
S38500426580FC82402008B5FBF701FA084B53F82020013A43F82020064A52F82020D20703D453F8203003B962B608BD00BF2C824020FC82402008B5FBF7E9F9094B53F820203AB9EFF31082D10700D472B6054941F8202053F82020013243F8202008BD00BFEC834020BC81402008B5FBF7CFF9084B53F82020013A43F82020064A52F820204E
S38500426600D20703D453F8203003B962B608BD00BFEC834020BC81402008B5FBF7B7F9094B53F820203AB9EFF31082D10700D472B6054941F8202053F82020013243F8202008BD00BF6C8540203C83402008B5FBF79DF9084B53F82020013A43F82020064A52F82020D20703D453F8203003B962B608BD00BF6C8540203C83402008B5FBF7E1
S3850042668085F9094B53F820203AB9EFF31082D10700D472B6054941F8202053F82020013243F8202008BD00BF0C814020CC84402008B5FBF76BF9084B53F82020013A43F82020064A52F82020D20703D453F8203003B962B608BD00BF0C814020CC84402008B5FBF753F9094B53F820203AB9EFF31082D10700D472B6054941F8202053F8B1
S385004267002020013243F8202008BD00BF9C8240204C86402008B5FBF739F9084B53F82020013A43F82020064A52F82020D20703D453F8203003B962B608BD00BF9C8240204C86402008B5FBF721F9094B53F820203AB9EFF31082D10700D472B6054941F8202053F82020013243F8202008BD00BF2C844020FC81402008B5FBF707F9084BB7
S3850042678053F82020013A43F82020064A52F82020D20703D453F8203003B962B608BD00BF2C844020FC81402008B5FBF7EFF8094B53F820203AB9EFF31082D10700D472B6054941F8202053F82020013243F8202008BD00BFAC8540207C83402008B5FBF7D5F8084B53F82020013A43F82020064A52F82020D20703D453F8203003B962B679
S3850042680008BD00BFAC8540207C83402008B5FBF7BDF8094B53F820203AB9EFF31082D10700D472B6054941F8202053F82020013243F8202008BD00BF4C8140200C85402008B5FBF7A3F8084B53F82020013A43F82020064A52F82020D20703D453F8203003B962B608BD00BF4C8140200C85402008B5FBF78BF8094B53F820203AB9EFF3DD
S385004268801082D10700D472B6054941F8202053F82020013243F8202008BD00BFDC8240208C86402008B5FBF771F8084B53F82020013A43F82020064A52F82020D20703D453F8203003B962B608BD00BFDC8240208C86402008B5FBF759F8094B53F820203AB9EFF31082D10700D472B6054941F8202053F82020013243F8202008BD00BF3F
S385004269006C8440203C82402008B5FBF73FF8084B53F82020013A43F82020064A52F82020D20703D453F8203003B962B608BD00BF6C8440203C82402008B5FBF727F8094B53F820203AB9EFF31082D10700D472B6054941F8202053F82020013243F8202008BD00BFEC854020BC83402008B5FBF70DF8084B53F82020013A43F82020064A88
S3850042698052F82020D20703D453F8203003B962B608BD00BFEC854020BC83402008B5FAF7F5FF094B53F820203AB9EFF31082D10700D472B6054941F8202053F82020013243F8202008BD00BF8C8140204C85402008B5FAF7DBFF084B53F82020013A43F82020064A52F82020D20703D453F8203003B962B608BD00BF8C8140204C8540209D
S38500426A0008B5FAF7C3FF094B53F820203AB9EFF31082D10700D472B6054941F8202053F82020013243F8202008BD00BF1C834020EC80402008B5FAF7A9FF084B53F82020013A43F82020064A52F82020D20703D453F8203003B962B608BD00BF1C834020EC80402008B5FAF791FF094B53F820203AB9EFF31082D10700D472B6054941F8E4
S38500426A80202053F82020013243F8202008BD00BFAC8440207C82402008B5FAF777FF084B53F82020013A43F82020064A52F82020D20703D453F8203003B962B608BD00BFAC8440207C82402008B5FAF75FFF094B53F820203AB9EFF31082D10700D472B6054941F8202053F82020013243F8202008BD00BF2C864020FC83402008B5FAF7F7
S38500426B0045FF084B53F82020013A43F82020064A52F82020D20703D453F8203003B962B608BD00BF2C864020FC83402008B5FAF72DFF094B53F820203AB9EFF31082D10700D472B6054941F8202053F82020013243F8202008BD00BFCC8140207C85402008B5FAF713FF084B53F82020013A43F82020064A52F82020D20703D453F8203088
S38500426B8003B962B608BD00BFCC8140207C85402008B5FAF7FBFE094B53F820203AB9EFF31082D10700D472B6054941F8202053F82020013243F8202008BD00BF4C8340201C81402008B5FAF7E1FE084B53F82020013A43F82020064A52F82020D20703D453F8203003B962B608BD00BF4C8340201C81402008B5FAF7C9FE094B53F8202058
S38500426C003AB9EFF31082D10700D472B6054941F8202053F82020013243F8202008BD00BFDC844020AC82402008B5FAF7AFFE084B53F82020013A43F82020064A52F82020D20703D453F8203003B962B608BD00BFDC844020AC82402008B5FAF797FE094B53F820203AB9EFF31082D10700D472B6054941F8202053F82020013243F82020A8
S38500426C8008BD00BF5C8640203C84402008B5FAF77DFE084B53F82020013A43F82020064A52F82020D20703D453F8203003B962B608BD00BF5C8640203C84402008B5FAF765FE094B53F820203AB9EFF31082D10700D472B6054941F8202053F82020013243F8202008BD00BF0C824020BC85402008B5FAF74BFE084B53F82020013A43F841
S38500426D002020064A52F82020D20703D453F8203003B962B608BD00BF0C824020BC85402008B5FAF733FE094B53F820203AB9EFF31082D10700D472B6054941F8202053F82020013243F8202008BD00BF8C8340205C81402008B5FAF719FE084B53F82020013A43F82020064A52F82020D20703D453F8203003B962B608BD00BF8C83402011
S38500426D805C81402008B5FAF701FE094B53F820203AB9EFF31082D10700D472B6054941F8202053F82020013243F8202008BD00BF1C854020EC82402008B5FAF7E7FD084B53F82020013A43F82020064A52F82020D20703D453F8203003B962B608BD00BF1C854020EC82402008B5FAF7CFFD094B53F820203AB9EFF31082D10700D472B6EE
S38500426E00054941F8202053F82020013243F8202008BD00BF9C8640207C84402008B5FAF7B5FD084B53F82020013A43F82020064A52F82020D20703D453F8203003B962B608BD00BF9C8640207C84402008B5FAF79DFD094B53F820203AB9EFF31082D10700D472B6054941F8202053F82020013243F8202008BD00BF4C824020FC8540201C
S38500426E8008B5FAF783FD084B53F82020013A43F82020064A52F82020D20703D453F8203003B962B608BD00BF4C824020FC85402008B5FAF76BFD094B53F820203AB9EFF31082D10700D472B6054941F8202053F82020013243F8202008BD00BFCC8340209C81402008B5FAF751FD084B53F82020013A43F82020064A52F82020D20703D402
S38500426F0053F8203003B962B608BD00BFCC8340209C81402008B5FAF739FD094B53F820203AB9EFF31082D10700D472B6054941F8202053F82020013243F8202008BD00BF0C8740201C87402008B5FAF71FFD084B53F82020013A43F82020064A52F82020D20703D453F8203003B962B608BD00BF0C8740201C87402008B5FAF707FD094B5B
S38500426F8053F820203AB9EFF31082D10700D472B6054941F8202053F82020013243F8202008BD00BFCC864020DC86402008B5FAF7EDFC084B53F82020013A43F82020064A52F82020D20703D453F8203003B962B608BD00BFCC864020DC86402008B5FAF7D5FC094B53F820203AB9EFF31082D10700D472B6054941F8202053F82020013251
S3850042700043F8202008BD00BFEC864020FC86402008B5FAF7BBFC084B53F82020013A43F82020064A52F82020D20703D453F8203003B962B608BD00BFEC864020FC86402008B5FAF7A3FC094B53F820203AB9EFF31082D10700D472B6054941F8202053F82020013243F8202008BD00BFFC8940203C89402008B5FAF789FC084B53F82020E5
S38500427080013A43F82020064A52F82020D20703D453F8203003B962B608BD00BFFC8940203C89402008B5FAF771FC094B53F820203AB9EFF31082D10700D472B6054941F8202053F82020013243F8202008BD00BF6C874020FC87402008B5FAF757FC084B53F82020013A43F82020064A52F82020D20703D453F8203003B962B608BD00BF0A
S385004271006C874020FC87402008B5FAF73FFC094B53F820203AB9EFF31082D10700D472B6054941F8202053F82020013243F8202008BD00BFCC8940201C88402008B5FAF725FC084B53F82020013A43F82020064A52F82020D20703D453F8203003B962B608BD00BFCC8940201C88402008B5FAF70DFC094B53F820203AB9EFF31082D107E3
S3850042718000D472B6054941F8202053F82020013243F8202008BD00BF8C8940200C8A402008B5FAF7F3FB084B53F82020013A43F82020064A52F82020D20703D453F8203003B962B608BD00BF8C8940200C8A402008B5FAF7DBFB094B53F820203AB9EFF31082D10700D472B6054941F8202053F82020013243F8202008BD00BF7C8A4020BC
S385004272007C87402008B5FAF7C1FB084B53F82020013A43F82020064A52F82020D20703D453F8203003B962B608BD00BF7C8A40207C87402008B5FAF7A9FB094B53F820203AB9EFF31082D10700D472B6054941F8202053F82020013243F8202008BD00BF5C894020AC87402008B5FAF78FFB084B53F82020013A43F82020064A52F82020B1
S38500427280D20703D453F8203003B962B608BD00BF5C894020AC87402008B5FAF777FB094B53F820203AB9EFF31082D10700D472B6054941F8202053F82020013243F8202008BD00BF0C8940209C89402008B5FAF75DFB084B53F82020013A43F82020064A52F82020D20703D453F8203003B962B608BD00BF0C8940209C89402008B5FAF754
S3850042730045FB094B53F820203AB9EFF31082D10700D472B6054941F8202053F82020013243F8202008BD00BFDC8740208C8A402008B5FAF72BFB084B53F82020013A43F82020064A52F82020D20703D453F8203003B962B608BD00BFDC8740208C8A402008B5FAF713FB094B53F820203AB9EFF31082D10700D472B6054941F8202053F8A8
S385004273802020013243F8202008BD00BFDC8840202C87402008B5FAF7F9FA084B53F82020013A43F82020064A52F82020D20703D453F8203003B962B608BD00BFDC8840202C87402008B5FAF7E1FA094B53F820203AB9EFF31082D10700D472B6054941F8202053F82020013243F8202008BD00BF9C8840206C8A402008B5FAF7C7FA084BB0
S3850042740053F82020013A43F82020064A52F82020D20703D453F8203003B962B608BD00BF9C8840206C8A402008B5FAF7AFFA094B53F820203AB9EFF31082D10700D472B6054941F8202053F82020013243F8202008BD00BF5C8740201C8A402008B5FAF795FA084B53F82020013A43F82020064A52F82020D20703D453F8203003B962B624
S3850042748008BD00BF5C8740201C8A402008B5FAF77DFA094B53F820203AB9EFF31082D10700D472B6054941F8202053F82020013243F8202008BD00BF6C8840203C8A402008B5FAF763FA084B53F82020013A43F82020064A52F82020D20703D453F8203003B962B608BD00BF6C8840203C8A402008B5FAF74BFA094B53F820203AB9EFF3FD
S385004275001082D10700D472B6054941F8202053F82020013243F8202008BD00BFAC894020CC88402008B5FAF731FA084B53F82020013A43F82020064A52F82020D20703D453F8203003B962B608BD00BFAC894020CC88402008B5FAF719FA094B53F820203AB9EFF31082D10700D472B6054941F8202053F82020013243F8202008BD00BFFE
S385004275804C894020BC89402008B5FAF7FFF9084B53F82020013A43F82020064A52F82020D20703D453F8203003B962B608BD00BF4C894020BC89402008B5FAF7E7F9094B53F820203AB9EFF31082D10700D472B6054941F8202053F82020013243F8202008BD00BF2C8A40209C8A402008B5FAF7CDF9084B53F82020013A43F82020064AB8
